:1000000019C031C030C02FC02EC02DC02CC02BC095
:100010002AC0C4C228C027C026C025C024C023C00F
:1000200022C07E0CB69ECCDAFA0EFEDEEEF8B0BC34
:10003000F2E2018111241FBECFEDCDBF10E0A0E69A
:10004000B0E0E4E6F7E002C005900D92A237B107F8
:10005000D9F710E0A2E7B0E001C01D92A638B107C1
:10006000E1F700D37DC3CCCFDC0120E040E050E0DD
:1000700098E115C0FD01E40FF51FE08138E08E2FF7
:100080008227F82FF17080FD29272695F13009F499
:100090002068315011F0E695F2CF4F5F5F4F461761
:1000A000570741F7822F0895AF92BF92DF92EF92E8
:1000B000FF920F931F93DF93CF93CDB7DEB7609777
:1000C0000FB6F894DEBF0FBECDBFD82E7A0159010E
:1000D000DE011196E0E6F0E080E101900D928150A2
:1000E000E1F7FB018081482F50E0918180E0482BAF
:1000F000592BF0E1DF1679F4CA018E7F33E0880FC7
:10010000991F3A95E1F7FB0126814CE050E0421B34
:100110005109480F591F57FF07C081E0F70180833D
:10012000509541955F4F02C0F7011082F8E2DF164B
:1001300099F4FB018481682F70E0CB018076907088
:100140008036910549F066FF02C04E7F05C065FF0D
:1001500002C04C7F01C0487FCA0124E09695879574
:100160002A95E1F7F5018083842F8F70FE01E80F57
:10017000F11D8181F801808380E060960FB6F894CC
:10018000DEBF0FBECDBFCF91DF911F910F91FF90CA
:10019000EF90DF90BF90AF900895882319F070958D
:1001A00061957F4F442319F0309521953F4F621799
:1001B00073071CF44FEF5FEF07C040E050E02617D5
:1001C000370714F441E050E0CA0108957F928F92FE
:1001D0009F92AF92BF92CF92DF92EF92FF920F93D6
:1001E0001F93DF93CF93CDB7DEB729970FB6F8945F
:1001F000DEBF0FBECDBF782E6B015A0149018EEBD9
:1002000060E070E0B1D18E010F5F1F4F4AE0E42E35
:10021000F12CEC0EFD1E5ED1F80181938F01EE15DD
:10022000FF05C9F77E010894E11CF11CC70169E0D4
:1002300070E01ADF882311F083E007C0872DB70133
:10024000A6019501840130DF80E029960FB6F8946D
:10025000DEBF0FBECDBFCF91DF911F910F91FF90F9
:10026000EF90DF90CF90BF90AF909F908F907F9056
:1002700008956F927F928F929F92AF92BF92CF928A
:10028000DF92EF92FF920F931F93DF93CF93CDB73F
:10029000DEB729970FB6F894DEBF0FBECDBF6C0155
:1002A0005B014A013901DCD08EEBB6015DD18E01D4
:1002B0000F5F1F4F5AE0E52EF12CEC0EFD1E0AD108
:1002C000F80181938F01EE15FF05C9F77E010894AF
:1002D000E11CF11CC70169E070E0C6DE882311F063
:1002E00083E008C0F6018081B701A5019401830174
:1002F000DBDE80E029960FB6F894DEBF0FBECDBFDF
:10030000CF91DF911F910F91FF90EF90DF90CF90F1
:10031000BF90AF909F908F907F906F9008951F93A4
:10032000CF93DF93182FEB019BD091D0882311F44A
:1003300082E007C084E4BE0117D1113009F08AD0F1
:1003400080E0DF91CF911F9108950F931F938C014F
:1003500087D084EBB80108D181E099D0182F80D0E4
:10036000111111E0812F1F910F9108950F931F9389
:10037000CF93DF938C01EB01F8018081BE01ADD0FA
:10038000F801808381508D3F28F48881883211F0F4
:10039000803191F7DF91CF911F910F9108958F9246
:1003A0009F92AF92BF92CF92DF92FF920F931F93D3
:1003B000DF93CF93CDB7DEB729970FB6F894DEBFA2
:1003C0000FBECDBF8FEF898300E010E0E2E0CE2EBC
:1003D000D12CCC0EDD1E4E010894811C911C7AE0BC
:1003E000A72EB12CAC0EBD1E18C0C401B601BEDFD5
:1003F00089818F3FC9F08E3FB9F0D601F80163E0E3
:10040000EE0FFF1F6A95E1F7EC58FF4F8D91819336
:10041000AA15BB05D9F70F5F1F4FF02E89818823DE
:1004200019F00230110509F78F2D29960FB6F894AF
:10043000DEBF0FBECDBFCF91DF911F910F91FF9017
:10044000DF90CF90BF90AF909F908F90089586B32C
:1004500084700895C29ABA9A0895C298BA98089575
:10046000C298BA9A80EA8A95F1F78FB7F894BA9849
:1004700096E19A95F1F796B38FBF8AE88A95F1F7DE
:10048000B29902C081E00895892F847008952FB732
:10049000F894BA9A91E09A95F1F78111BA9895E09B
:1004A0009A95F1F7B29B80E09FE09A95F1F7BA98A0
:1004B0002FBF08950F931F93182F08E0812F81708D
:1004C000E6DF1695811110680150C1F7812F1F9149
:1004D0000F9108958FEFEEDF0895DF92EF92FF9274
:1004E0000F931F93CF93DF93E82EEB01B9DF88239F
:1004F00081F580EFDFDF80E4FF24182F98EFD92EFD
:10050000D80E81E0C4DF082F81E0C1DF882329F005
:10051000002371F08EEFF82E1EC0002349F41E1543
:1005200028F0888180FF04C0E11611F0F12E01E06F
:10053000802FADDF888186958883002311F0806845
:10054000888311501D15E9F6112329F02196812F7A
:10055000D4CFFF24FA948F2DDF91CF911F910F916B
:10056000FF90EF90DF9008950F931F93CF93DF9349
:10057000082FEB0175DF209741F085E59BDF18E040
:10058000899198DF1150E1F702C08CEC93DF802F46
:1005900091DFDF91CF911F910F9108951F920F92DC
:1005A0000FB60F9211245F936F937F938F939F9356
:1005B000EF93FF9388B3836088BB80917000813094
:1005C000F1F4C0988DE08A95F1F7809172008A303D
:1005D00018F4E09172000BC0E091720080917200FB
:1005E0006AE0B2D090E066EF7FEF9CD0E80FF0E0D9
:1005F000EE5DFF4FE491E095EBBB82E010C088B365
:10060000836088BBC198809172006AE09DD0E82F1A
:10061000F0E0EE5DFF4FE491E095EBBB81E080936D
:100620007000FF91EF919F918F917F916F915F91FA
:100630000F900FBE0F901F901895E2E2F0E0E80FC8
:10064000F11DE491E095EBBB089588B3836088BB0E
:100650008FEF8BBB85B7806285BF889585B78F7D0F
:1006600085BF0895EF92FF921F93CF93DF9385B7D5
:10067000877E806185BF85B7806285BF80B78260D5
:1006800080BF83B7836083BF89B7826089BF80E5FD
:1006900086BF8FEF8ABB789487B3836087BB84ED76
:1006A000E82E80E3F82EC9E1D0E0E0E3F0E0149119
:1006B000109575DE80938500C7010197F1F780E002
:1006C00060E070E02CDE8CE49DE1FE013197F1F7F3
:1006D0000197D9F784E790E064E870E042E750E0E2
:1006E00023E730E0C6DD8823D9F480E395E7FE01F7
:1006F0003197F1F70197D9F78091840090917300B9
:10070000882311F4905601C096559093720080E3AF
:1007100095E7FE013197F1F70197D9F796DFC9CF39
:100720001BBBC7CF5527002480FF02C0060E571FF2
:10073000660F771F6115710521F0969587950097D3
:1007400099F7952F802D0895991B79E004C0991F82
:10075000961708F0961B881F7A95C9F7809508951B
:04076000F894FFCF3B
:10076400000101020203040405060607070809093B
:02077400010082
:00000001FF
